:020000040800F2
:10000000E01500206D010008810900087909000849
:100010007D09000827020008F50A0008000000001A
:10002000000000000000000000000000A50900081A
:100030002B0200080000000083090008910A000854
:100040008701000887010008870100088701000870
:100050008701000887010008870100088701000860
:100060008701000887010008870100088701000850
:100070008701000887010008870100088701000840
:100080008701000887010008870100088701000830
:100090008701000887010008870100088701000820
:1000A0008701000887010008870100088701000810
:1000B0008701000887010008870100088701000800
:1000C00087010008870100088701000887010008F0
:1000D00087010008870100088701000887010008E0
:1000E00087010008870100088701000800F002F876
:1000F00000F02CF80AA090E8000C82448344AAF196
:100100000107DA4501D100F021F8AFF2090EBAE893
:100110000F0013F0010F18BFFB1A43F0010318473B
:100120004813000058130000002300240025002677
:10013000103A28BF78C1FBD8520728BF30C148BF4A
:100140000B6070471FB51FBD10B510BD00F036F82D
:100150001146FFF7F7FF00F0CFFC00F054F803B4AE
:10016000FFF7F2FF03BC00F057F800000948804792
:1001700009480047FEE7FEE7FEE7FEE7FEE7FEE789
:10018000FEE7FEE7FEE7FEE704480549054A064BA1
:1001900070470000950A0008ED000008E00F0020FD
:1001A000E0150020E0110020E011002070477047AA
:1001B0007047000000487047800F00207546FFF729
:1001C000F9FFAE4605006946534620F00700854614
:1001D00018B020B5FFF7D8FFBDE820404FF000066B
:1001E0004FF000074FF000084FF0000B21F007011F
:1001F000AC46ACE8C009ACE8C009ACE8C009ACE862
:10020000C0098D46704710B50446AFF30080204604
:10021000BDE81040FFF7A3BF01491820ABBEFEE7C1
:1002200026000200704700BFFEE7704700B5034696
:1002300003E04FF47A7000F005F8181EA3F10103F3
:10024000F7D100BD00EBC001C9004FF0E0225161C1
:10025000002191610521116100BF4FF0E021096982
:1002600001F480310029F8D004214FF0E02211611F
:100270007047000010B500200EE0002108E00022C9
:10028000C0EB4013064C04EBC3035A544A1CD1B2D2
:10029000F829F4DB421CD0B21028EEDB10BD0000C0
:1002A000000000202DE9F04304460D4616461F4687
:1002B00028463CE0224635E0002A31DBF72A2FDCD5
:1002C00000282DDB7F282BDC4FEAE07C00EB5C7CF8
:1002D0004FEAEC0CCCEB4C1CDFF85C8008EBCC0C50
:1002E0001CF802C003464FEAE07800EB58784FEA6A
:1002F000E808A0EBC8094FF0010808FA09F82CEA51
:10030000080C01464FEAE07800EB58784FEAE8081D
:10031000C8EB4818DFF8209009EBC80808F802C0BD
:10032000511C0AB2A1199142C6DC411C08B2E9195C
:100330008142BFDCBDE8F083000000202DE9F047DA
:1003400007460C4615461E46DDE9099ADDF8208071
:10035000112000F055FA504600F064FA442000F0F5
:100360004FFA384600F05EFA204600F05BFA45206E
:1003700000F046FA304600F055FA002000F052FA3C
:10038000404600F04FFA002000F04CFA4E2000F0FA
:1003900037FA284600F046FA4F2000F031FA484676
:1003A00000F040FA002000F03DFABDE8F0870000C0
:1003B00038B5002406E0002500E06D1CB5F57A7F15
:1003C000FBD3641CB4F57A7FF5D30121042000F03F
:1003D000D9FA10208DF8030003208DF802001F20A9
:1003E000ADF800006946094800F02BFA48208DF866
:1003F00003002020ADF800006946044800F021FA0F
:100400001F21024800F0B1FA38BD00000008014089
:1004100010B5FFF7CDFF002000F0D6F90F20FFF751
:1004200005FF012000F0D0F90F20FFF7FFFE00F0DC
:10043000D5F9122000F0E4F900F0D0F9012000F025
:10044000DFF9F72000F0EEF9002000F0EBF90020D2
:1004500000F0E8F9112000F0D3F9042000F0E2F9EF
:10046000442000F0CDF90E2000F0DCF9032000F06C
:10047000D9F9452000F0C4F9F72000F0D3F90020A5
:1004800000F0D0F9002000F0CDF9002000F0CAF90A
:100490003C2000F0B5F9C02000F0C4F92C2000F099
:1004A000AFF9702000F0BEF9032000F0A9F9172081
:1004B00000F0B8F9042000F0A3F9412000F0B2F9EF
:1004C000002000F0AFF9322000F0ACF9322000F04B
:1004D00097F9002404E0FF2000F0A4F9601CC4B2E6
:1004E000E02CF8DB00F07AF910BD10B502460120CF
:1004F00000E050430B1EA1F10101FAD110BD70B50F
:100500000546002411E0002000F040F9802121413F
:10051000294009B1012100E00021084600F040F91E
:10052000012000F033F9601CC4B2082CEBDB70BD75
:10053000F8B506460F4614461D46082D0CD1A4F109
:1005400020000E4901EB00101023082239460090CC
:10055000304600F017F80FE0062D0DD1A4F1200071
:1005600000EB4000064901EB400008230622394613
:100570000090304600F006F8F8BD0000400B00087F
:10058000301100082DE9F04F80460D4691469A46FD
:100590000026002400BFC5F18000A0EB0A0005B2D0
:1005A00053464A4629464046FFF77CFE00BF65E0B9
:1005B00000265FE008EB0600002859DB08EB060088
:1005C000F82855DC2846E91705EB5171C9100FB220
:1005D000E91705EB5171C910A5EBC10B002D05DA28
:1005E000781E07B20BF108000FFA80FB381B1BD4F2
:1005F000381B102818DC381BC0EB4010254901EBD4
:10060000C00008EB0601405C04FB09620999895CA3
:1006100001FA0BF10843391BC1EB41111D4A02EBF2
:10062000C10108EB06028854381B401E00281FD465
:10063000381B401E10281BDC381B401EC0EB40102E
:10064000144901EBC00008EB0601405C04FB0962A1
:100650000999895CCBF1080211410843391B491EF5
:10066000C1EB41110B4A02EBC10108EB06028854B1
:10067000701CC6B24E459DDB601CC4B2AAF10100DD
:10068000C11700EB5171012202EBE101A1428FDCA5
:10069000BDE8F08F000000202DE9F04706468946AE
:1006A00017461D46DDF82080002417E0281B411E58
:1006B0000A20FFF71AFFB7FBF0F00A21B0FBF1F2B6
:1006C00001FB120000F1300A04FB086108B2434646
:1006D00052464946FFF72CFF601CC4B2AC42E5DB32
:1006E000BDE8F0872DE9F0410646884615461F46CD
:1006F000002409E02A5D04FB076108B23B4641463D
:10070000FFF716FF601CC4B2285D0028F2D1BDE8D7
:10071000F08100003EB50720F721009100230F2251
:10072000CDE9011011461846FFF708FE242000F01D
:1007300067F800240FE0002509E0C4EB44110D4ADE
:1007400002EBC101485D00F06DF8681C85B2F82D20
:10075000F3DB601C84B2102CEDDB222000F050F89B
:10076000F72000F05FF8202000F04AF800F036F89B
:100770003EBD00000000002010B5044622461021B6
:10078000014800F0F4F810BD0008014010B504461F
:1007900022460121014800F0EAF810BD000801409E
:1007A00010B5044622460221014800F0E0F810BDD1
:1007B0000008014010B5044622460821014800F017
:1007C000D6F810BD0008014010B5044622460421A9
:1007D000014800F0CCF810BD0008014010B501241C
:1007E00009E02021054800F0B7F804461CB90A20AA
:1007F000FFF71CFD00E0F4E700BF10BD000801405A
:1008000010B504460020FFF7B7FF0020FFF7D2FF26
:100810002046FFF774FE0120FFF7CCFF0120FFF711
:10082000ABFF10BD10B504460020FFF7A5FF012067
:10083000FFF7C0FF2046FFF762FE0120FFF79CFF95
:1008400010BD2DE9F04102460025002600200023BE
:100850000024002791F803C00CF00F0591F803C0A5
:100860000CF0100CBCF1000F03D091F802C04CEA60
:10087000050591F800C0BCF1000F31D014680020CC
:100880002BE04FF0010C0CFA00F3B1F800C00CEAB9
:1008900003069E4220D183004FF00F0C0CFA03F7A1
:1008A000BC4305FA03FC4CEA040491F803C0BCF114
:1008B000280F06D14FF0010C0CFA00FCC2F814C04E
:1008C0000AE091F803C0BCF1480F05D14FF0010CCC
:1008D0000CFA00FCC2F810C0401C0828D1D31460E8
:1008E000B1F800C0BCF1FF0F34DD546800202EE0E9
:1008F00000F1080C4FF0010808FA0CF3B1F800C041
:100900000CEA03069E4221D183004FF00F0C0CFA33
:1009100003F7BC4305FA03FC4CEA040491F803C056
:10092000BCF1280F05D100F1080C08FA0CF8C2F848
:10093000148091F803C0BCF1480F07D100F1080CF6
:100940004FF0010808FA0CF8C2F81080401C082883
:10095000CED35460BDE8F0810246002093680B407E
:100960000BB1012000E000207047016170470AB11F
:10097000016100E04161704700BFFEE700BFFEE794
:100980007047704729B1064A92690243044B9A6145
:1009900004E0034A92698243014B9A617047000068
:1009A00000100240704710B500F002F810BD0000C2
:1009B0000CB50020019000903348006840F480306E
:1009C0003149086000BF3048006800F400300090F2
:1009D0000198401C0190009818B90198B0F5A06FDB
:1009E000F1D12948006800F4003010B101200090D6
:1009F00001E0002000900098012843D123480068BE
:100A000040F01000214908600846006820F003000B
:100A100008600846006840F0020008601A48406814
:100A2000194948600846406848600846406840F4F4
:100A3000806048600846406820F47C1048600846A2
:100A4000406840F4E81048600846006840F0807054
:100A5000086000BF0C48006800F000700028F9D062
:100A60000948406820F0030007494860084640688C
:100A700040F00200486000BF0348406800F00C00EE
:100A80000828F9D10CBD00000010024000200240EF
:100A90007047000010B51348006840F0010011498C
:100AA000086008464068104908400E4948600846FA
:100AB00000680E4908400B4908600846006820F4A9
:100AC000802008600846406820F4FE0048604FF42B
:100AD0001F008860FFF767FF4FF00060044908605F
:100AE00010BD0000001002400000FFF8FFFFF6FEFE
:100AF00008ED00E000BFFEE708B5FFF789FCFFF74F
:100B0000B9FB002408230CA200210846FFF7EAFDE8
:100B1000FFF700FE0FE00820052322462021009069
:100B20000020FFF7B9FD601C84B24FF4FA60FFF7B4
:100B30007DFBFFF7EFFDEEE74C5A3131303400001A
:100B400000000000000000000000000000000000A5
:100B5000000000F80000000000000033300000003A
:100B600000160E00160E000000000000000000003D
:100B700040C07840C0784000043F04043F040400B3
:100B8000007088FC08300000001820FF211E0000C3
:100B9000F008F000E018000000211C031E211E00D8
:100BA00000F00888700000001E212324192721105E
:100BB000000000160E000000000000000000000011
:100BC000000000E0180402000000000718204000A8
:100BD00000020418E0000000004020180700000098
:100BE000404080F0804040000202010F01020200FC
:100BF000000000F0000000000101011F01010100E0
:100C0000000000000000000000B0700000000000C4
:100C100000000000000000000001010101010101CD
:100C20000000000000000000003030000000000064
:100C30000000000080601804006018060100000039
:100C400000E010080810E000000F102020100F0036
:100C5000001010F8000000000020203F20200000BD
:100C60000070080808887000003028242221300015
:100C700000300888884830000018202020110E001D
:100C80000000C02010F8000000070424243F2400C6
:100C900000F80888880808000019212020110E009B
:100CA00000E0108888180000000F112020110E00AD
:100CB00000380808C83808000000003F00000000A5
:100CC0000070880808887000001C222121221C0066
:100CD00000E010080810E0000000312222110F008F
:100CE000000000C0C0000000000000303000000024
:100CF000000000C0C0000000000080B070000000D4
:100D000000008040201008000001020408102000AC
:100D100040404040404040000404040404040400F7
:100D2000000810204080000000201008040201008C
:100D3000007048080808F00000000030360100008C
:100D4000C030C828E810E0000718272423140B003F
:100D50000000C038E0000000203C230202273820B9
:100D600008F8888888700000203F202020110E009D
:100D7000C030080808083800071820202010080094
:100D800008F808080810E000203F202020100F007D
:100D900008F88888E8081000203F20202320180049
:100DA00008F88888E8081000203F200003000000B1
:100DB000C03008080838000007182020221E020052
:100DC00008F808000008F808203F210101213F2011
:100DD000000808F8080800000020203F202000003C
:100DE00000000808F8080800C08080807F0000002C
:100DF00008F888C028180800203F20012638200065
:100E000008F8080000000000203F202020203000CB
:100E100008F8F800F8F80800203F003F003F2000E5
:100E200008F830C00008F808203F200007183F00ED
:100E3000E01008080810E0000F10202020100F001C
:100E400008F808080808F000203F2101010100000F
:100E5000E01008080810E0000F18242438504F0054
:100E600008F8888888887000203F2000030C302014
:100E700000708808080838000038202121221C0052
:100E8000180808F8080818000000203F200000009B
:100E900008F808000008F808001F202020201F0084
:100EA0000878880000C83808000007380E010000E4
:100EB000F80800F80008F800033C0700073C0300AE
:100EC000081868808068180820302C03032C302014
:100ED0000838C800C83808000000203F2000000083
:100EE00010080808C83808002038262120201800DB
:100EF000000000FE020202000000007F40404000AF
:100F0000000C30C000000000000000010638C000E6
:100F100000020202FE000000004040407F0000008E
:100F2000002010080408102000000000000000004D
:100F300000000000000000008080808080808080B1
:100F40000002040800000000000000000000000093
:100F500000008080808000000019242222223F208F
:100F600008F8008080000000003F112020110E00D2
:100F70000000008080800000000E11202020110061
:100F8000000000808088F800000E112020103F2013
:100F90000000808080800000001F22222222130097
:100FA000008080F0888888180020203F20200000E2
:100FB0000000808080808000006B94949493600097
:100FC00008F8008080800000203F210000203F20A2
:100FD00000809898000000000020203F20200000A2
:100FE000000000809898000000C08080807F000092
:100FF00008F8000080808000203F24022D3020006F
:10100000000808F8000000000020203F2020000019
:101010008080808080808000203F20003F20003F33
:10102000008080008080000000203F2100203F20C1
:101030000000808080800000001F202020201F00F2
:10104000808000808000000080FFA12020110E0021
:101050000000008080808000000E112020A0FF8012
:10106000808080008080800020203F2120000100BF
:101070000000808080808000003324242424190014
:10108000008080E0808000000000001F2020000021
:101090008080000000808000001F202020103F2062
:1010A000808080000080808000010E3008060100F2
:1010B00080800080008080800F300C030C300F0097
:1010C00000808000808080000020312E0E312000C2
:1010D000808080000080808080818E7018060100F2
:1010E00000808080808080000021302C2221300010
:1010F00000000000807C020200000000003F404031
:1011000000000000FF00000000000000FF000000E1
:101110000002027C800000000040403F0000000010
:1011200000804040800000800000000000010100BD
:101130000000000000000000002F00000000070079
:10114000070000147F147F1400242A7F2A12002332
:101150001308646200364955225000000007000061
:1011600000001C224100000041221C000014083E27
:1011700008140008083E0808000000A060000008ED
:101180000808080800006060000000201008040241
:10119000003E5149453E0000427F400000426151FF
:1011A0004946002141454B31001814127F10002799
:1011B00045454539003C4A4949300001710905035C
:1011C00000364949493600064949291E000036368D
:1011D00000000000563600000008142241000014F0
:1011E00014141414000041221408000201510906CD
:1011F000003E4955592E007C1211127C007F49494E
:101200004936003E41414122007F4141221C007F7E
:1012100049494941007F09090901003E4149497A8C
:10122000007F0808087F0000417F41000020404106
:101230003F01007F08142241007F40404040007F72
:10124000020C027F007F0408107F003E4141413EB6
:10125000007F09090906003E4151215E007F0919FE
:1012600029460046494949310001017F0101003FFB
:101270004040403F001F2040201F003F4038403F7B
:1012800000631408146300070870080700615149DF
:10129000454300007F414100000204081020000087
:1012A00041417F00000402010204004040404040F0
:1012B000000001020400002054545478007F484488
:1012C000443800384444442000384444487F0038BF
:1012D0005454541800087E0901020018A4A4A47CE8
:1012E000007F080404780000447D400000408084B2
:1012F0007D00007F102844000000417F4000007CFA
:1013000004180478007C0804047800384444443805
:1013100000FC242424180018242418FC007C080451
:10132000040800485454542000043F444020003C2A
:101330004040207C001C2040201C003C4030403CB1
:10134000004428102844001CA0A0A07C0044645441
:101350004C440000087F41000000007F00000000B6
:10136000417F0800000804081008EFBC8C00000052
:10137000000000000000000000000000000000006D
:101380005838000000000000000000000000E3806A
:1013900082000000000000000000000000000000CB
:1013A00000000000182424180000000000000000C5
:1013B0000000E4BDA000008060F8074020180F087E
:1013C000C80808281800010000FF00100C03408026
:1013D0007F0001061800E5A5BD001010F01F10F0F9
:1013E00000808282E2928A8680004022150816617F
:1013F000000040807F0000000000E4B8960020203C
:1014000020FE2020FF202020FF20202020000000A0
:10141000007F404047444444474040400000E79537
:101420008C00000000FE929292FE929292FE0000CA
:10143000000008080484621E010001FE0204040882
:10144000080000000000FF010101310909090989B4
:101450007101010101FFFF80808080808096818082
:101460008080808080FF0000781400080000002049
:08147000E0150000280100084E
:04000005080000ED02
:00000001FF
